{
  "contractName": "MyNFT",
  "abi": [
    {
      "inputs": [],
      "stateMutability": "nonpayable",
      "type": "constructor"
    },
    {
      "anonymous": false,
      "inputs": [
        {
          "indexed": true,
          "internalType": "address",
          "name": "owner",
          "type": "address"
        },
        {
          "indexed": true,
          "internalType": "address",
          "name": "approved",
          "type": "address"
        },
        {
          "indexed": true,
          "internalType": "uint256",
          "name": "tokenId",
          "type": "uint256"
        }
      ],
      "name": "Approval",
      "type": "event"
    },
    {
      "anonymous": false,
      "inputs": [
        {
          "indexed": true,
          "internalType": "address",
          "name": "owner",
          "type": "address"
        },
        {
          "indexed": true,
          "internalType": "address",
          "name": "operator",
          "type": "address"
        },
        {
          "indexed": false,
          "internalType": "bool",
          "name": "approved",
          "type": "bool"
        }
      ],
      "name": "ApprovalForAll",
      "type": "event"
    },
    {
      "anonymous": false,
      "inputs": [
        {
          "indexed": true,
          "internalType": "address",
          "name": "previousOwner",
          "type": "address"
        },
        {
          "indexed": true,
          "internalType": "address",
          "name": "newOwner",
          "type": "address"
        }
      ],
      "name": "OwnershipTransferred",
      "type": "event"
    },
    {
      "anonymous": false,
      "inputs": [
        {
          "indexed": true,
          "internalType": "address",
          "name": "from",
          "type": "address"
        },
        {
          "indexed": true,
          "internalType": "address",
          "name": "to",
          "type": "address"
        },
        {
          "indexed": true,
          "internalType": "uint256",
          "name": "tokenId",
          "type": "uint256"
        }
      ],
      "name": "Transfer",
      "type": "event"
    },
    {
      "inputs": [
        {
          "internalType": "address",
          "name": "to",
          "type": "address"
        },
        {
          "internalType": "uint256",
          "name": "tokenId",
          "type": "uint256"
        }
      ],
      "name": "approve",
      "outputs": [],
      "stateMutability": "nonpayable",
      "type": "function"
    },
    {
      "inputs": [
        {
          "internalType": "address",
          "name": "owner",
          "type": "address"
        }
      ],
      "name": "balanceOf",
      "outputs": [
        {
          "internalType": "uint256",
          "name": "",
          "type": "uint256"
        }
      ],
      "stateMutability": "view",
      "type": "function"
    },
    {
      "inputs": [
        {
          "internalType": "uint256",
          "name": "tokenId",
          "type": "uint256"
        }
      ],
      "name": "getApproved",
      "outputs": [
        {
          "internalType": "address",
          "name": "",
          "type": "address"
        }
      ],
      "stateMutability": "view",
      "type": "function"
    },
    {
      "inputs": [
        {
          "internalType": "address",
          "name": "owner",
          "type": "address"
        },
        {
          "internalType": "address",
          "name": "operator",
          "type": "address"
        }
      ],
      "name": "isApprovedForAll",
      "outputs": [
        {
          "internalType": "bool",
          "name": "",
          "type": "bool"
        }
      ],
      "stateMutability": "view",
      "type": "function"
    },
    {
      "inputs": [],
      "name": "name",
      "outputs": [
        {
          "internalType": "string",
          "name": "",
          "type": "string"
        }
      ],
      "stateMutability": "view",
      "type": "function"
    },
    {
      "inputs": [],
      "name": "owner",
      "outputs": [
        {
          "internalType": "address",
          "name": "",
          "type": "address"
        }
      ],
      "stateMutability": "view",
      "type": "function"
    },
    {
      "inputs": [
        {
          "internalType": "uint256",
          "name": "tokenId",
          "type": "uint256"
        }
      ],
      "name": "ownerOf",
      "outputs": [
        {
          "internalType": "address",
          "name": "",
          "type": "address"
        }
      ],
      "stateMutability": "view",
      "type": "function"
    },
    {
      "inputs": [],
      "name": "renounceOwnership",
      "outputs": [],
      "stateMutability": "nonpayable",
      "type": "function"
    },
    {
      "inputs": [
        {
          "internalType": "address",
          "name": "from",
          "type": "address"
        },
        {
          "internalType": "address",
          "name": "to",
          "type": "address"
        },
        {
          "internalType": "uint256",
          "name": "tokenId",
          "type": "uint256"
        }
      ],
      "name": "safeTransferFrom",
      "outputs": [],
      "stateMutability": "nonpayable",
      "type": "function"
    },
    {
      "inputs": [
        {
          "internalType": "address",
          "name": "from",
          "type": "address"
        },
        {
          "internalType": "address",
          "name": "to",
          "type": "address"
        },
        {
          "internalType": "uint256",
          "name": "tokenId",
          "type": "uint256"
        },
        {
          "internalType": "bytes",
          "name": "data",
          "type": "bytes"
        }
      ],
      "name": "safeTransferFrom",
      "outputs": [],
      "stateMutability": "nonpayable",
      "type": "function"
    },
    {
      "inputs": [
        {
          "internalType": "address",
          "name": "operator",
          "type": "address"
        },
        {
          "internalType": "bool",
          "name": "approved",
          "type": "bool"
        }
      ],
      "name": "setApprovalForAll",
      "outputs": [],
      "stateMutability": "nonpayable",
      "type": "function"
    },
    {
      "inputs": [
        {
          "internalType": "bytes4",
          "name": "interfaceId",
          "type": "bytes4"
        }
      ],
      "name": "supportsInterface",
      "outputs": [
        {
          "internalType": "bool",
          "name": "",
          "type": "bool"
        }
      ],
      "stateMutability": "view",
      "type": "function"
    },
    {
      "inputs": [],
      "name": "symbol",
      "outputs": [
        {
          "internalType": "string",
          "name": "",
          "type": "string"
        }
      ],
      "stateMutability": "view",
      "type": "function"
    },
    {
      "inputs": [
        {
          "internalType": "uint256",
          "name": "tokenId",
          "type": "uint256"
        }
      ],
      "name": "tokenURI",
      "outputs": [
        {
          "internalType": "string",
          "name": "",
          "type": "string"
        }
      ],
      "stateMutability": "view",
      "type": "function"
    },
    {
      "inputs": [
        {
          "internalType": "address",
          "name": "from",
          "type": "address"
        },
        {
          "internalType": "address",
          "name": "to",
          "type": "address"
        },
        {
          "internalType": "uint256",
          "name": "tokenId",
          "type": "uint256"
        }
      ],
      "name": "transferFrom",
      "outputs": [],
      "stateMutability": "nonpayable",
      "type": "function"
    },
    {
      "inputs": [
        {
          "internalType": "address",
          "name": "newOwner",
          "type": "address"
        }
      ],
      "name": "transferOwnership",
      "outputs": [],
      "stateMutability": "nonpayable",
      "type": "function"
    },
    {
      "inputs": [
        {
          "internalType": "address",
          "name": "recipient",
          "type": "address"
        },
        {
          "internalType": "string",
          "name": "tokenURI",
          "type": "string"
        }
      ],
      "name": "mintNFT",
      "outputs": [
        {
          "internalType": "uint256",
          "name": "",
          "type": "uint256"
        }
      ],
      "stateMutability": "nonpayable",
      "type": "function"
    }
  ],
  "bytecode": "0x60806040523480156200001157600080fd5b506040518060400160405280600581526020017f4d794e46540000000000000000000000000000000000000000000000000000008152506040518060400160405280600381526020017f4e46540000000000000000000000000000000000000000000000000000000000815250816000908051906020019062000096929190620001a6565b508060019080519060200190620000af929190620001a6565b505050620000d2620000c6620000d860201b60201c565b620000e060201b60201c565b620002bb565b600033905090565b6000600760009054906101000a900473ffffffffffffffffffffffffffffffffffffffff16905081600760006101000a81548173ffffffffffffffffffffffffffffffffffffffff021916908373ffffffffffffffffffffffffffffffffffffffff1602179055508173ffffffffffffffffffffffffffffffffffffffff168173ffffffffffffffffffffffffffffffffffffffff167f8be0079c531659141344cd1fd0a4f28419497f9722a3daafe3b4186f6b6457e060405160405180910390a35050565b828054620001b49062000285565b90600052602060002090601f016020900481019282620001d8576000855562000224565b82601f10620001f357805160ff191683800117855562000224565b8280016001018555821562000224579182015b828111156200022357825182559160200191906001019062000206565b5b50905062000233919062000237565b5090565b5b808211156200025257600081600090555060010162000238565b5090565b7f4e487b7100000000000000000000000000000000000000000000000000000000600052602260045260246000fd5b600060028204905060018216806200029e57607f821691505b60208210811415620002b557620002b462000256565b5b50919050565b612c0a80620002cb6000396000f3fe608060405234801561001057600080fd5b506004361061010b5760003560e01c8063715018a6116100a2578063b88d4fde11610071578063b88d4fde146102a4578063c87b56dd146102c0578063e985e9c5146102f0578063eacabe1414610320578063f2fde38b146103505761010b565b8063715018a6146102425780638da5cb5b1461024c57806395d89b411461026a578063a22cb465146102885761010b565b806323b872dd116100de57806323b872dd146101aa57806342842e0e146101c65780636352211e146101e257806370a08231146102125761010b565b806301ffc9a71461011057806306fdde0314610140578063081812fc1461015e578063095ea7b31461018e575b600080fd5b61012a60048036038101906101259190611adc565b61036c565b6040516101379190611b24565b60405180910390f35b61014861044e565b6040516101559190611bd8565b60405180910390f35b61017860048036038101906101739190611c30565b6104e0565b6040516101859190611c9e565b60405180910390f35b6101a860048036038101906101a39190611ce5565b610526565b005b6101c460048036038101906101bf9190611d25565b61063e565b005b6101e060048036038101906101db9190611d25565b61069e565b005b6101fc60048036038101906101f79190611c30565b6106be565b6040516102099190611c9e565b60405180910390f35b61022c60048036038101906102279190611d78565b610770565b6040516102399190611db4565b60405180910390f35b61024a610828565b005b61025461083c565b6040516102619190611c9e565b60405180910390f35b610272610866565b60405161027f9190611bd8565b60405180910390f35b6102a2600480360381019061029d9190611dfb565b6108f8565b005b6102be60048036038101906102b99190611f70565b61090e565b005b6102da60048036038101906102d59190611c30565b610970565b6040516102e79190611bd8565b60405180910390f35b61030a60048036038101906103059190611ff3565b610a83565b6040516103179190611b24565b60405180910390f35b61033a600480360381019061033591906120d4565b610b17565b6040516103479190611db4565b60405180910390f35b61036a60048036038101906103659190611d78565b610b57565b005b60007f80ac58cd000000000000000000000000000000000000000000000000000000007bffffffffffffffffffffffffffffffffffffffffffffffffffffffff1916827bffffffffffffffffffffffffffffffffffffffffffffffffffffffff1916148061043757507f5b5e139f000000000000000000000000000000000000000000000000000000007bffffffffffffffffffffffffffffffffffffffffffffffffffffffff1916827bffffffffffffffffffffffffffffffffffffffffffffffffffffffff1916145b80610447575061044682610bdb565b5b9050919050565b60606000805461045d9061215f565b80601f01602080910402602001604051908101604052809291908181526020018280546104899061215f565b80156104d65780601f106104ab576101008083540402835291602001916104d6565b820191906000526020600020905b8154815290600101906020018083116104b957829003601f168201915b5050505050905090565b60006104eb82610c45565b6004600083815260200190815260200160002060009054906101000a900473ffffffffffffffffffffffffffffffffffffffff169050919050565b6000610531826106be565b90508073ffffffffffffffffffffffffffffffffffffffff168373ffffffffffffffffffffffffffffffffffffffff1614156105a2576040517f08c379a000000000000000000000000000000000000000000000000000000000815260040161059990612203565b60405180910390fd5b8073ffffffffffffffffffffffffffffffffffffffff166105c1610c90565b73ffffffffffffffffffffffffffffffffffffffff1614806105f057506105ef816105ea610c90565b610a83565b5b61062f576040517f08c379a000000000000000000000000000000000000000000000000000000000815260040161062690612295565b60405180910390fd5b6106398383610c98565b505050565b61064f610649610c90565b82610d51565b61068e576040517f08c379a000000000000000000000000000000000000000000000000000000000815260040161068590612327565b60405180910390fd5b610699838383610de6565b505050565b6106b98383836040518060200160405280600081525061090e565b505050565b6000806002600084815260200190815260200160002060009054906101000a900473ffffffffffffffffffffffffffffffffffffffff169050600073ffffffffffffffffffffffffffffffffffffffff168173ffffffffffffffffffffffffffffffffffffffff161415610767576040517f08c379a000000000000000000000000000000000000000000000000000000000815260040161075e90612393565b60405180910390fd5b80915050919050565b60008073ffffffffffffffffffffffffffffffffffffffff168273ffffffffffffffffffffffffffffffffffffffff1614156107e1576040517f08c379a00000000000000000000000000000000000000000000000000000000081526004016107d890612425565b60405180910390fd5b600360008373ffffffffffffffffffffffffffffffffffffffff1673ffffffffffffffffffffffffffffffffffffffff168152602001908152602001600020549050919050565b61083061104d565b61083a60006110cb565b565b6000600760009054906101000a900473ffffffffffffffffffffffffffffffffffffffff16905090565b6060600180546108759061215f565b80601f01602080910402602001604051908101604052809291908181526020018280546108a19061215f565b80156108ee5780601f106108c3576101008083540402835291602001916108ee565b820191906000526020600020905b8154815290600101906020018083116108d157829003601f168201915b5050505050905090565b61090a610903610c90565b8383611191565b5050565b61091f610919610c90565b83610d51565b61095e576040517f08c379a000000000000000000000000000000000000000000000000000000000815260040161095590612327565b60405180910390fd5b61096a848484846112fe565b50505050565b606061097b82610c45565b600060066000848152602001908152602001600020805461099b9061215f565b80601f01602080910402602001604051908101604052809291908181526020018280546109c79061215f565b8015610a145780601f106109e957610100808354040283529160200191610a14565b820191906000526020600020905b8154815290600101906020018083116109f757829003601f168201915b505050505090506000610a2561135a565b9050600081511415610a3b578192505050610a7e565b600082511115610a70578082604051602001610a58929190612481565b60405160208183030381529060405292505050610a7e565b610a7984611371565b925050505b919050565b6000600560008473ffffffffffffffffffffffffffffffffffffffff1673ffffffffffffffffffffffffffffffffffffffff16815260200190815260200160002060008373ffffffffffffffffffffffffffffffffffffffff1673ffffffffffffffffffffffffffffffffffffffff16815260200190815260200160002060009054906101000a900460ff16905092915050565b6000610b2161104d565b610b2b60086113d9565b6000610b3760086113ef565b9050610b4384826113fd565b610b4d81846115d7565b8091505092915050565b610b5f61104d565b600073ffffffffffffffffffffffffffffffffffffffff168173ffffffffffffffffffffffffffffffffffffffff161415610bcf576040517f08c379a0000000000000000000000000000000000000000000000000000000008152600401610bc690612517565b60405180910390fd5b610bd8816110cb565b50565b60007f01ffc9a7000000000000000000000000000000000000000000000000000000007bffffffffffffffffffffffffffffffffffffffffffffffffffffffff1916827bffffffffffffffffffffffffffffffffffffffffffffffffffffffff1916149050919050565b610c4e8161164b565b610c8d576040517f08c379a0000000000000000000000000000000000000000000000000000000008152600401610c8490612393565b60405180910390fd5b50565b600033905090565b816004600083815260200190815260200160002060006101000a81548173ffffffffffffffffffffffffffffffffffffffff021916908373ffffffffffffffffffffffffffffffffffffffff160217905550808273ffffffffffffffffffffffffffffffffffffffff16610d0b836106be565b73ffffffffffffffffffffffffffffffffffffffff167f8c5be1e5ebec7d5bd14f71427d1e84f3dd0314c0f7b2291e5b200ac8c7c3b92560405160405180910390a45050565b600080610d5d836106be565b90508073ffffffffffffffffffffffffffffffffffffffff168473ffffffffffffffffffffffffffffffffffffffff161480610d9f5750610d9e8185610a83565b5b80610ddd57508373ffffffffffffffffffffffffffffffffffffffff16610dc5846104e0565b73ffffffffffffffffffffffffffffffffffffffff16145b91505092915050565b8273ffffffffffffffffffffffffffffffffffffffff16610e06826106be565b73ffffffffffffffffffffffffffffffffffffffff1614610e5c576040517f08c379a0000000000000000000000000000000000000000000000000000000008152600401610e53906125a9565b60405180910390fd5b600073ffffffffffffffffffffffffffffffffffffffff168273ffffffffffffffffffffffffffffffffffffffff161415610ecc576040517f08c379a0000000000000000000000000000000000000000000000000000000008152600401610ec39061263b565b60405180910390fd5b610ed78383836116b7565b610ee2600082610c98565b6001600360008573ffffffffffffffffffffffffffffffffffffffff1673ffffffffffffffffffffffffffffffffffffffff1681526020019081526020016000206000828254610f32919061268a565b925050819055506001600360008473ffffffffffffffffffffffffffffffffffffffff1673ffffffffffffffffffffffffffffffffffffffff1681526020019081526020016000206000828254610f8991906126be565b92505081905550816002600083815260200190815260200160002060006101000a81548173ffffffffffffffffffffffffffffffffffffffff021916908373ffffffffffffffffffffffffffffffffffffffff160217905550808273ffffffffffffffffffffffffffffffffffffffff168473ffffffffffffffffffffffffffffffffffffffff167fddf252ad1be2c89b69c2b068fc378daa952ba7f163c4a11628f55a4df523b3ef60405160405180910390a46110488383836116bc565b505050565b611055610c90565b73ffffffffffffffffffffffffffffffffffffffff1661107361083c565b73ffffffffffffffffffffffffffffffffffffffff16146110c9576040517f08c379a00000000000000000000000000000000000000000000000000000000081526004016110c090612760565b60405180910390fd5b565b6000600760009054906101000a900473ffffffffffffffffffffffffffffffffffffffff16905081600760006101000a81548173ffffffffffffffffffffffffffffffffffffffff021916908373ffffffffffffffffffffffffffffffffffffffff1602179055508173ffffffffffffffffffffffffffffffffffffffff168173ffffffffffffffffffffffffffffffffffffffff167f8be0079c531659141344cd1fd0a4f28419497f9722a3daafe3b4186f6b6457e060405160405180910390a35050565b8173ffffffffffffffffffffffffffffffffffffffff168373ffffffffffffffffffffffffffffffffffffffff161415611200576040517f08c379a00000000000000000000000000000000000000000000000000000000081526004016111f7906127cc565b60405180910390fd5b80600560008573ffffffffffffffffffffffffffffffffffffffff1673ffffffffffffffffffffffffffffffffffffffff16815260200190815260200160002060008473ffffffffffffffffffffffffffffffffffffffff1673ffffffffffffffffffffffffffffffffffffffff16815260200190815260200160002060006101000a81548160ff0219169083151502179055508173ffffffffffffffffffffffffffffffffffffffff168373ffffffffffffffffffffffffffffffffffffffff167f17307eab39ab6107e8899845ad3d59bd9653f200f220920489ca2b5937696c31836040516112f19190611b24565b60405180910390a3505050565b611309848484610de6565b611315848484846116c1565b611354576040517f08c379a000000000000000000000000000000000000000000000000000000000815260040161134b9061285e565b60405180910390fd5b50505050565b606060405180602001604052806000815250905090565b606061137c82610c45565b600061138661135a565b905060008151116113a657604051806020016040528060008152506113d1565b806113b084611849565b6040516020016113c1929190612481565b6040516020818303038152906040525b915050919050565b6001816000016000828254019250508190555050565b600081600001549050919050565b600073ffffffffffffffffffffffffffffffffffffffff168273ffffffffffffffffffffffffffffffffffffffff16141561146d576040517f08c379a0000000000000000000000000000000000000000000000000000000008152600401611464906128ca565b60405180910390fd5b6114768161164b565b156114b6576040517f08c379a00000000000000000000000000000000000000000000000000000000081526004016114ad90612936565b60405180910390fd5b6114c2600083836116b7565b6001600360008473ffffffffffffffffffffffffffffffffffffffff1673ffffffffffffffffffffffffffffffffffffffff168152602001908152602001600020600082825461151291906126be565b92505081905550816002600083815260200190815260200160002060006101000a81548173ffffffffffffffffffffffffffffffffffffffff021916908373ffffffffffffffffffffffffffffffffffffffff160217905550808273ffffffffffffffffffffffffffffffffffffffff16600073ffffffffffffffffffffffffffffffffffffffff167fddf252ad1be2c89b69c2b068fc378daa952ba7f163c4a11628f55a4df523b3ef60405160405180910390a46115d3600083836116bc565b5050565b6115e08261164b565b61161f576040517f08c379a0000000000000000000000000000000000000000000000000000000008152600401611616906129c8565b60405180910390fd5b806006600084815260200190815260200160002090805190602001906116469291906119cd565b505050565b60008073ffffffffffffffffffffffffffffffffffffffff166002600084815260200190815260200160002060009054906101000a900473ffffffffffffffffffffffffffffffffffffffff1673ffffffffffffffffffffffffffffffffffffffff1614159050919050565b505050565b505050565b60006116e28473ffffffffffffffffffffffffffffffffffffffff166119aa565b1561183c578373ffffffffffffffffffffffffffffffffffffffff1663150b7a0261170b610c90565b8786866040518563ffffffff1660e01b815260040161172d9493929190612a3d565b6020604051808303816000875af192505050801561176957506040513d601f19601f820116820180604052508101906117669190612a9e565b60015b6117ec573d8060008114611799576040519150601f19603f3d011682016040523d82523d6000602084013e61179e565b606091505b506000815114156117e4576040517f08c379a00000000000000000000000000000000000000000000000000000000081526004016117db9061285e565b60405180910390fd5b805181602001fd5b63150b7a0260e01b7bffffffffffffffffffffffffffffffffffffffffffffffffffffffff1916817bffffffffffffffffffffffffffffffffffffffffffffffffffffffff191614915050611841565b600190505b949350505050565b60606000821415611891576040518060400160405280600181526020017f300000000000000000000000000000000000000000000000000000000000000081525090506119a5565b600082905060005b600082146118c35780806118ac90612acb565b915050600a826118bc9190612b43565b9150611899565b60008167ffffffffffffffff8111156118df576118de611e45565b5b6040519080825280601f01601f1916602001820160405280156119115781602001600182028036833780820191505090505b5090505b6000851461199e5760018261192a919061268a565b9150600a856119399190612b74565b603061194591906126be565b60f81b81838151811061195b5761195a612ba5565b5b60200101907effffffffffffffffffffffffffffffffffffffffffffffffffffffffffffff1916908160001a905350600a856119979190612b43565b9450611915565b8093505050505b919050565b6000808273ffffffffffffffffffffffffffffffffffffffff163b119050919050565b8280546119d99061215f565b90600052602060002090601f0160209004810192826119fb5760008555611a42565b82601f10611a1457805160ff1916838001178555611a42565b82800160010185558215611a42579182015b82811115611a41578251825591602001919060010190611a26565b5b509050611a4f9190611a53565b5090565b5b80821115611a6c576000816000905550600101611a54565b5090565b6000604051905090565b600080fd5b600080fd5b60007fffffffff0000000000000000000000000000000000000000000000000000000082169050919050565b611ab981611a84565b8114611ac457600080fd5b50565b600081359050611ad681611ab0565b92915050565b600060208284031215611af257611af1611a7a565b5b6000611b0084828501611ac7565b91505092915050565b60008115159050919050565b611b1e81611b09565b82525050565b6000602082019050611b396000830184611b15565b92915050565b600081519050919050565b600082825260208201905092915050565b60005b83811015611b79578082015181840152602081019050611b5e565b83811115611b88576000848401525b50505050565b6000601f19601f8301169050919050565b6000611baa82611b3f565b611bb48185611b4a565b9350611bc4818560208601611b5b565b611bcd81611b8e565b840191505092915050565b60006020820190508181036000830152611bf28184611b9f565b905092915050565b6000819050919050565b611c0d81611bfa565b8114611c1857600080fd5b50565b600081359050611c2a81611c04565b92915050565b600060208284031215611c4657611c45611a7a565b5b6000611c5484828501611c1b565b91505092915050565b600073ffffffffffffffffffffffffffffffffffffffff82169050919050565b6000611c8882611c5d565b9050919050565b611c9881611c7d565b82525050565b6000602082019050611cb36000830184611c8f565b92915050565b611cc281611c7d565b8114611ccd57600080fd5b50565b600081359050611cdf81611cb9565b92915050565b60008060408385031215611cfc57611cfb611a7a565b5b6000611d0a85828601611cd0565b9250506020611d1b85828601611c1b565b9150509250929050565b600080600060608486031215611d3e57611d3d611a7a565b5b6000611d4c86828701611cd0565b9350506020611d5d86828701611cd0565b9250506040611d6e86828701611c1b565b9150509250925092565b600060208284031215611d8e57611d8d611a7a565b5b6000611d9c84828501611cd0565b91505092915050565b611dae81611bfa565b82525050565b6000602082019050611dc96000830184611da5565b92915050565b611dd881611b09565b8114611de357600080fd5b50565b600081359050611df581611dcf565b92915050565b60008060408385031215611e1257611e11611a7a565b5b6000611e2085828601611cd0565b9250506020611e3185828601611de6565b9150509250929050565b600080fd5b600080fd5b7f4e487b7100000000000000000000000000000000000000000000000000000000600052604160045260246000fd5b611e7d82611b8e565b810181811067ffffffffffffffff82111715611e9c57611e9b611e45565b5b80604052505050565b6000611eaf611a70565b9050611ebb8282611e74565b919050565b600067ffffffffffffffff821115611edb57611eda611e45565b5b611ee482611b8e565b9050602081019050919050565b82818337600083830152505050565b6000611f13611f0e84611ec0565b611ea5565b905082815260208101848484011115611f2f57611f2e611e40565b5b611f3a848285611ef1565b509392505050565b600082601f830112611f5757611f56611e3b565b5b8135611f67848260208601611f00565b91505092915050565b60008060008060808587031215611f8a57611f89611a7a565b5b6000611f9887828801611cd0565b9450506020611fa987828801611cd0565b9350506040611fba87828801611c1b565b925050606085013567ffffffffffffffff811115611fdb57611fda611a7f565b5b611fe787828801611f42565b91505092959194509250565b6000806040838503121561200a57612009611a7a565b5b600061201885828601611cd0565b925050602061202985828601611cd0565b9150509250929050565b600067ffffffffffffffff82111561204e5761204d611e45565b5b61205782611b8e565b9050602081019050919050565b600061207761207284612033565b611ea5565b90508281526020810184848401111561209357612092611e40565b5b61209e848285611ef1565b509392505050565b600082601f8301126120bb576120ba611e3b565b5b81356120cb848260208601612064565b91505092915050565b600080604083850312156120eb576120ea611a7a565b5b60006120f985828601611cd0565b925050602083013567ffffffffffffffff81111561211a57612119611a7f565b5b612126858286016120a6565b9150509250929050565b7f4e487b7100000000000000000000000000000000000000000000000000000000600052602260045260246000fd5b6000600282049050600182168061217757607f821691505b6020821081141561218b5761218a612130565b5b50919050565b7f4552433732313a20617070726f76616c20746f2063757272656e74206f776e6560008201527f7200000000000000000000000000000000000000000000000000000000000000602082015250565b60006121ed602183611b4a565b91506121f882612191565b604082019050919050565b6000602082019050818103600083015261221c816121e0565b9050919050565b7f4552433732313a20617070726f76652063616c6c6572206973206e6f7420746f60008201527f6b656e206f776e6572206e6f7220617070726f76656420666f7220616c6c0000602082015250565b600061227f603e83611b4a565b915061228a82612223565b604082019050919050565b600060208201905081810360008301526122ae81612272565b9050919050565b7f4552433732313a2063616c6c6572206973206e6f7420746f6b656e206f776e6560008201527f72206e6f7220617070726f766564000000000000000000000000000000000000602082015250565b6000612311602e83611b4a565b915061231c826122b5565b604082019050919050565b6000602082019050818103600083015261234081612304565b9050919050565b7f4552433732313a20696e76616c696420746f6b656e2049440000000000000000600082015250565b600061237d601883611b4a565b915061238882612347565b602082019050919050565b600060208201905081810360008301526123ac81612370565b9050919050565b7f4552433732313a2061646472657373207a65726f206973206e6f74206120766160008201527f6c6964206f776e65720000000000000000000000000000000000000000000000602082015250565b600061240f602983611b4a565b915061241a826123b3565b604082019050919050565b6000602082019050818103600083015261243e81612402565b9050919050565b600081905092915050565b600061245b82611b3f565b6124658185612445565b9350612475818560208601611b5b565b80840191505092915050565b600061248d8285612450565b91506124998284612450565b91508190509392505050565b7f4f776e61626c653a206e6577206f776e657220697320746865207a65726f206160008201527f6464726573730000000000000000000000000000000000000000000000000000602082015250565b6000612501602683611b4a565b915061250c826124a5565b604082019050919050565b60006020820190508181036000830152612530816124f4565b9050919050565b7f4552433732313a207472616e736665722066726f6d20696e636f72726563742060008201527f6f776e6572000000000000000000000000000000000000000000000000000000602082015250565b6000612593602583611b4a565b915061259e82612537565b604082019050919050565b600060208201905081810360008301526125c281612586565b9050919050565b7f4552433732313a207472616e7366657220746f20746865207a65726f2061646460008201527f7265737300000000000000000000000000000000000000000000000000000000602082015250565b6000612625602483611b4a565b9150612630826125c9565b604082019050919050565b6000602082019050818103600083015261265481612618565b9050919050565b7f4e487b7100000000000000000000000000000000000000000000000000000000600052601160045260246000fd5b600061269582611bfa565b91506126a083611bfa565b9250828210156126b3576126b261265b565b5b828203905092915050565b60006126c982611bfa565b91506126d483611bfa565b9250827fffffffffffffffffffffffffffffffffffffffffffffffffffffffffffffffff038211156127095761270861265b565b5b828201905092915050565b7f4f776e61626c653a2063616c6c6572206973206e6f7420746865206f776e6572600082015250565b600061274a602083611b4a565b915061275582612714565b602082019050919050565b600060208201905081810360008301526127798161273d565b9050919050565b7f4552433732313a20617070726f766520746f2063616c6c657200000000000000600082015250565b60006127b6601983611b4a565b91506127c182612780565b602082019050919050565b600060208201905081810360008301526127e5816127a9565b9050919050565b7f4552433732313a207472616e7366657220746f206e6f6e20455243373231526560008201527f63656976657220696d706c656d656e7465720000000000000000000000000000602082015250565b6000612848603283611b4a565b9150612853826127ec565b604082019050919050565b600060208201905081810360008301526128778161283b565b9050919050565b7f4552433732313a206d696e7420746f20746865207a65726f2061646472657373600082015250565b60006128b4602083611b4a565b91506128bf8261287e565b602082019050919050565b600060208201905081810360008301526128e3816128a7565b9050919050565b7f4552433732313a20746f6b656e20616c7265616479206d696e74656400000000600082015250565b6000612920601c83611b4a565b915061292b826128ea565b602082019050919050565b6000602082019050818103600083015261294f81612913565b9050919050565b7f45524337323155524953746f726167653a2055524920736574206f66206e6f6e60008201527f6578697374656e7420746f6b656e000000000000000000000000000000000000602082015250565b60006129b2602e83611b4a565b91506129bd82612956565b604082019050919050565b600060208201905081810360008301526129e1816129a5565b9050919050565b600081519050919050565b600082825260208201905092915050565b6000612a0f826129e8565b612a1981856129f3565b9350612a29818560208601611b5b565b612a3281611b8e565b840191505092915050565b6000608082019050612a526000830187611c8f565b612a5f6020830186611c8f565b612a6c6040830185611da5565b8181036060830152612a7e8184612a04565b905095945050505050565b600081519050612a9881611ab0565b92915050565b600060208284031215612ab457612ab3611a7a565b5b6000612ac284828501612a89565b91505092915050565b6000612ad682611bfa565b91507fffffffffffffffffffffffffffffffffffffffffffffffffffffffffffffffff821415612b0957612b0861265b565b5b600182019050919050565b7f4e487b7100000000000000000000000000000000000000000000000000000000600052601260045260246000fd5b6000612b4e82611bfa565b9150612b5983611bfa565b925082612b6957612b68612b14565b5b828204905092915050565b6000612b7f82611bfa565b9150612b8a83611bfa565b925082612b9a57612b99612b14565b5b828206905092915050565b7f4e487b7100000000000000000000000000000000000000000000000000000000600052603260045260246000fdfea2646970667358221220b6b8ba3c68dd55a1776c9ead32af15c8e77cf990b3c79374c4cb05c087fa79b164736f6c634300080a0033",
  "immutableReferences": {},
  "source": "//Contract based on [https://docs.openzeppelin.com/contracts/3.x/erc721](https://docs.openzeppelin.com/contracts/3.x/erc721)\n// SPDX-License-Identifier: MIT\npragma solidity ^0.8.7;\n\nimport \"@openzeppelin/contracts/token/ERC721/ERC721.sol\";\nimport \"@openzeppelin/contracts/utils/Counters.sol\";\nimport \"@openzeppelin/contracts/access/Ownable.sol\";\nimport \"@openzeppelin/contracts/token/ERC721/extensions/ERC721URIStorage.sol\";\n\ncontract MyNFT is ERC721URIStorage, Ownable {\n    using Counters for Counters.Counter;\n    Counters.Counter private _tokenIds;\n\n    constructor() public ERC721(\"MyNFT\", \"NFT\") {}\n\n    function mintNFT(address recipient, string memory tokenURI)\n        public onlyOwner\n        returns (uint256)\n    {\n        _tokenIds.increment();\n\n        uint256 newItemId = _tokenIds.current();\n        _mint(recipient, newItemId);\n        _setTokenURI(newItemId, tokenURI);\n\n        return newItemId;\n    }\n}",
  "sourcePath": "/Users/instant/Desktop/learnNFT/contracts/MyNFTs.sol",
  "compiler": {
    "name": "solc",
    "version": "0.8.10+commit.fc410830.Emscripten.clang"
  },
  "schemaVersion": "3.4.10",
  "updatedAt": "2022-11-07T13:32:58.214Z",
  "devdoc": {
    "kind": "dev",
    "methods": {
      "approve(address,uint256)": {
        "details": "See {IERC721-approve}."
      },
      "balanceOf(address)": {
        "details": "See {IERC721-balanceOf}."
      },
      "getApproved(uint256)": {
        "details": "See {IERC721-getApproved}."
      },
      "isApprovedForAll(address,address)": {
        "details": "See {IERC721-isApprovedForAll}."
      },
      "name()": {
        "details": "See {IERC721Metadata-name}."
      },
      "owner()": {
        "details": "Returns the address of the current owner."
      },
      "ownerOf(uint256)": {
        "details": "See {IERC721-ownerOf}."
      },
      "renounceOwnership()": {
        "details": "Leaves the contract without owner. It will not be possible to call `onlyOwner` functions anymore. Can only be called by the current owner. NOTE: Renouncing ownership will leave the contract without an owner, thereby removing any functionality that is only available to the owner."
      },
      "safeTransferFrom(address,address,uint256)": {
        "details": "See {IERC721-safeTransferFrom}."
      },
      "safeTransferFrom(address,address,uint256,bytes)": {
        "details": "See {IERC721-safeTransferFrom}."
      },
      "setApprovalForAll(address,bool)": {
        "details": "See {IERC721-setApprovalForAll}."
      },
      "supportsInterface(bytes4)": {
        "details": "See {IERC165-supportsInterface}."
      },
      "symbol()": {
        "details": "See {IERC721Metadata-symbol}."
      },
      "tokenURI(uint256)": {
        "details": "See {IERC721Metadata-tokenURI}."
      },
      "transferFrom(address,address,uint256)": {
        "details": "See {IERC721-transferFrom}."
      },
      "transferOwnership(address)": {
        "details": "Transfers ownership of the contract to a new account (`newOwner`). Can only be called by the current owner."
      }
    },
    "version": 1
  },
  "userdoc": {
    "kind": "user",
    "methods": {},
    "version": 1
  }
}